{"abi":[{"type":"function","name":"deploy","inputs":[{"name":"typ","type":"uint8","internalType":"enum CoboFactory.DeployType"},{"name":"salt","type":"bytes32","internalType":"bytes32"},{"name":"initCode","type":"bytes","internalType":"bytes"}],"outputs":[{"name":"_contract","type":"address","internalType":"address"}],"stateMutability":"nonpayable"},{"type":"function","name":"deployAndInit","inputs":[{"name":"typ","type":"uint8","internalType":"enum CoboFactory.DeployType"},{"name":"salt","type":"bytes32","internalType":"bytes32"},{"name":"initCode","type":"bytes","internalType":"bytes"},{"name":"callData","type":"bytes","internalType":"bytes"}],"outputs":[{"name":"_contract","type":"address","internalType":"address"}],"stateMutability":"nonpayable"},{"type":"function","name":"deployCreate2","inputs":[{"name":"salt","type":"bytes32","internalType":"bytes32"},{"name":"initCode","type":"bytes","internalType":"bytes"},{"name":"_private","type":"bool","internalType":"bool"},{"name":"_emit","type":"bool","internalType":"bool"}],"outputs":[{"name":"_contract","type":"address","internalType":"address"}],"stateMutability":"nonpayable"},{"type":"function","name":"deployCreate3","inputs":[{"name":"salt","type":"bytes32","internalType":"bytes32"},{"name":"initCode","type":"bytes","internalType":"bytes"},{"name":"_private","type":"bool","internalType":"bool"},{"name":"_emit","type":"bool","internalType":"bool"}],"outputs":[{"name":"_contract","type":"address","internalType":"address"}],"stateMutability":"nonpayable"},{"type":"function","name":"getAddress","inputs":[{"name":"typ","type":"uint8","internalType":"enum CoboFactory.DeployType"},{"name":"salt","type":"bytes32","internalType":"bytes32"},{"name":"sender","type":"address","internalType":"address"},{"name":"initCode","type":"bytes","internalType":"bytes"}],"outputs":[{"name":"_contract","type":"address","internalType":"address"}],"stateMutability":"view"},{"type":"function","name":"getCreate2Address","inputs":[{"name":"salt","type":"bytes32","internalType":"bytes32"},{"name":"sender","type":"address","internalType":"address"},{"name":"initCode","type":"bytes","internalType":"bytes"}],"outputs":[{"name":"_contract","type":"address","internalType":"address"}],"stateMutability":"view"},{"type":"function","name":"getCreate3Address","inputs":[{"name":"salt","type":"bytes32","internalType":"bytes32"},{"name":"sender","type":"address","internalType":"address"}],"outputs":[{"name":"_contract","type":"address","internalType":"address"}],"stateMutability":"view"},{"type":"event","name":"ContractDeployed","inputs":[{"name":"_contract","type":"address","indexed":true,"internalType":"address"},{"name":"_deployer","type":"address","indexed":true,"internalType":"address"}],"anonymous":false}],"bytecode":{"object":"0x6080806040523461001657610b94908161001c8239f35b600080fdfe6080604052600436101561001257600080fd5b60003560e01c80631eaff03e146100875780632f0791d514610082578063456276b71461007d578063a0354b7114610078578063cf6ce4d814610073578063d4fadcad1461006e5763e6eb7a291461006957600080fd5b6105d8565b61057b565b61055f565b61051b565b61043a565b6102d4565b346100c15760206100a361009a366101e6565b9291909161063e565b73ffffffffffffffffffffffffffffffffffffffff60405191168152f35b600080fd5b7f4e487b7100000000000000000000000000000000000000000000000000000000600052604160045260246000fd5b6080810190811067ffffffffffffffff82111761011157604052565b6100c6565b90601f7fffffffffffffffffffffffffffffffffffffffffffffffffffffffffffffffe0910116810190811067ffffffffffffffff82111761011157604052565b67ffffffffffffffff811161011157601f017fffffffffffffffffffffffffffffffffffffffffffffffffffffffffffffffe01660200190565b92919261019d82610157565b916101ab6040519384610116565b8294818452818301116100c1578281602093846000960137010152565b9080601f830112156100c1578160206101e393359101610191565b90565b9060807ffffffffffffffffffffffffffffffffffffffffffffffffffffffffffffffffc8301126100c157600435916024359067ffffffffffffffff82116100c157610234916004016101c8565b9060443580151581036100c1579060643580151581036100c15790565b6004359060088210156100c157565b6044359073ffffffffffffffffffffffffffffffffffffffff821682036100c157565b6024359073ffffffffffffffffffffffffffffffffffffffff821682036100c157565b9181601f840112156100c15782359167ffffffffffffffff83116100c157602083818601950101116100c157565b346100c15760807ffffffffffffffffffffffffffffffffffffffffffffffffffffffffffffffffc3601126100c15761030b610251565b602435610316610260565b9060643567ffffffffffffffff81116100c1576103379036906004016102a6565b91600093600886101561040d576003610395961661035481610984565b61035d81610984565b8061039957505061036e93506109f4565b60405173ffffffffffffffffffffffffffffffffffffffff90911681529081906020820190565b0390f35b6103a581939293610984565b600281036103bd57506103b89450610a4e565b61036e565b6103cc91945080929350610984565b600181036103e05750506103b89150610a89565b806103ef600392949394610984565b146103fc575b505061036e565b6104069250610b03565b38806103f5565b6024857f4e487b710000000000000000000000000000000000000000000000000000000081526021600452fd5b346100c15760807ffffffffffffffffffffffffffffffffffffffffffffffffffffffffffffffffc3601126100c157610471610251565b67ffffffffffffffff6044358181116100c1576104929036906004016102a6565b92906064359283116100c1576104cb600093926104c16104b7869536906004016102a6565b9490973691610191565b90602435906109bd565b938160405192839283378101838152039082855af1906104e96107ef565b91156105125760405173ffffffffffffffffffffffffffffffffffffffff919091168152602090f35b50805190602001fd5b346100c15760407ffffffffffffffffffffffffffffffffffffffffffffffffffffffffffffffffc3601126100c15760206100a3610557610283565b600435610b03565b346100c15760206100a3610572366101e6565b92919091610884565b346100c15760607ffffffffffffffffffffffffffffffffffffffffffffffffffffffffffffffffc3601126100c1576105b2610251565b60443567ffffffffffffffff81116100c1576020916104c16100a39236906004016101c8565b346100c15760607ffffffffffffffffffffffffffffffffffffffffffffffffffffffffffffffffc3601126100c15761060f610283565b60443567ffffffffffffffff81116100c1576020916106356100a39236906004016102a6565b91600435610a4e565b610657919294939460009060001461070e57503361070e565b906020815191016000f59173ffffffffffffffffffffffffffffffffffffffff83169081156106b0576106875750565b33907f33c981baba081f8fd2c52ac6ad1ea95b6814b4376640f55689051f6584729688600080a3565b60646040517f08c379a000000000000000000000000000000000000000000000000000000000815260206004820152600e60248201527f43726561746532206661696c65640000000000000000000000000000000000006044820152fd5b906040519073ffffffffffffffffffffffffffffffffffffffff602083019316835260408201526002606082015260608152610749816100f5565b51902090565b906040519073ffffffffffffffffffffffffffffffffffffffff602083019316835260408201526003606082015260608152610749816100f5565b1561079157565b60646040517f08c379a000000000000000000000000000000000000000000000000000000000815260206004820152601460248201527f437265617465332070726f7879206661696c65640000000000000000000000006044820152fd5b3d1561081a573d9061080082610157565b9161080e6040519384610116565b82523d6000602084013e565b606090565b1561082657565b60646040517f08c379a000000000000000000000000000000000000000000000000000000000815260206004820152600e60248201527f43726561746533206661696c65640000000000000000000000000000000000006044820152fd5b92939290916000901561097e575033905b61089f818361074f565b60405190604082019082821067ffffffffffffffff83111761011157601060206000948594604052828152017f67363d3d37363d34f03d5260086018f300000000000000000000000000000000815283f59473ffffffffffffffffffffffffffffffffffffffff95610914878216151561078a565b82602083519301915af16109266107ef565b901561097657509061093791610b03565b92610944843b151561081f565b61094b5750565b339083167f33c981baba081f8fd2c52ac6ad1ea95b6814b4376640f55689051f6584729688600080a3565b805190602001fd5b90610895565b6008111561098e57565b7f4e487b7100000000000000000000000000000000000000000000000000000000600052602160045260246000fd5b9091600882101561098e57600280831614906001806004808616149416146000146109eb576101e393610884565b6101e39361063e565b610a04600b926055943691610191565b602081519101209060405160208101916000835260408201526002606082015260608152610a31816100f5565b51902060405191604083015260208201523081520160ff81532090565b610a6f90610a62600b946055963691610191565b602081519101209261070e565b60405191604083015260208201523081520160ff81532090565b60405160208101916000835260408201526003606082015260608152610aae816100f5565b519020604051903060005260ff600b536020527f21c35dbe1b344a2488cf3321d6ce542f8e9f305544ff09e4993a62319a497c1f6040526055600b2060145260405261d69460005260016034536017601e2090565b610b0c9161074f565b604051903060005260ff600b536020527f21c35dbe1b344a2488cf3321d6ce542f8e9f305544ff09e4993a62319a497c1f6040526055600b2060145260405261d69460005260016034536017601e209056fea2646970667358221220b907bf20dd67c4e645b8fa8eb64ff8ee667f4334e512ed7d677899ac94cb029564736f6c63430008140033","linkReferences":{}},"methodIdentifiers":{"deploy(uint8,bytes32,bytes)":"d4fadcad","deployAndInit(uint8,bytes32,bytes,bytes)":"456276b7","deployCreate2(bytes32,bytes,bool,bool)":"1eaff03e","deployCreate3(bytes32,bytes,bool,bool)":"cf6ce4d8","getAddress(uint8,bytes32,address,bytes)":"2f0791d5","getCreate2Address(bytes32,address,bytes)":"e6eb7a29","getCreate3Address(bytes32,address)":"a0354b71"},"id":0}